:100000000A128A1103280310831603130030031801
:1000100001308600031083120313003003180130EF
:1000200086000330831203138600E830F000FD30B1
:10003000F1000A128A11EE270A128A1103108312A4
:1000400003130030031801308600E830F000FD3063
:10005000F1000A128A11EE270A128A1111280A12D7
:040060008A110028D9
:100FDC00EF2F0130F0020030031CF103F102FF305F
:100FEC007106031DFB2FFF307006031DFE2FFF2F14
:040FFC00EF2F0800CB
:00000001FF
